:020000040000FA
:06000000D0EF01F0120038
:0A0006000100BE03000080000000AE
:040010006400000088
:0C001400936A946A826A816AC00EC76E0B
:10002000200EC66E170EE66E8EEC01F0E552A3D8D8
:10003000FED7D9CFE6FFE1CFD9FF060EE126010EAC
:10004000E76EFD0EDBCF10F0FE0EDBCF11F0E750B8
:100050001026000E1122040ED89010361136E80634
:10006000FBE11006000E115A10C0DEFF11C0DDFFCB
:10007000106A010E116E10C00BF00C6EDECF06F090
:10008000DDCF07F0AAEC01F0040E06C0DBFF050E81
:1000900007C0DBFF040EDBCF10F0050EDBCF11F045
:1000A000300E1012000E1112040E10C0DBFF050EF0
:1000B00011C0DBFFDECF10F0DDCF11F0FF0E101608
:1000C000000E1116020E10C0DBFF030E11C0DBFF85
:1000D0008198040EDB50C96EC7A0FED7020EDB501C
:1000E000C96EC7A0FED78188060EE15C02E2E16A14
:1000F000E552E16EE552E7CFD9FF12000001EE6B49
:10010000EF6BFF0EEE5D000EEF5902E25CD8F9D7FF
:10011000F069F16B000ED880F055000EF1550AE23F
:10012000F0C0E6FFF1C0E6FF6BD80001F007000E5B
:10013000F15BF0D71200FF0E42D80001F069F16BBD
:10014000000ED880F055000EF15507E2000E37D8AA
:100150000001F007000EF15BF3D712000001EE6B17
:10016000EF6BFF0EEE5D000EEF5902E22CD8F9D7CF
:10017000000EDFEF00F00001F22B000EF323B40EAF
:10018000F25D000EF35902E3F26BF36B800EF22581
:10019000E96E000EF321EA6EEF50EE6FEF6BE66E44
:1001A000EFC0E6FF00EF01F023D817D8FEE3000E02
:1001B00006D81ED812D8FEE3FF0E01D8F5D7E66E9A
:1001C000E66A00EF01F0EEC0E6FFEFC0E6FF18D8E8
:1001D0000001EE2B000EEF23120053EC01F0F3CFE1
:1001E00010F0F4CF11F00A0EF35C000EF458120078
:1001F000000EE66EE66A72EC01F0E552E55212007E
:0802000018DFE552E55212007F
:08020800060EF66E000EF76E03
:10021000000EF86E00010900F550E96F0900F55075
:10022000EA6F03E1E96701D03DD00900F550E46FC2
:100230000900F550E56F0900F550E66F0900090067
:10024000F550E96E0900F550EA6E09000900090051
:10025000F550E76F0900F550E86F09000900F6CF87
:10026000EBF0F7CFECF0F8CFEDF0E4C0F6FFE5C02F
:10027000F7FFE6C0F8FF0001E75302E1E85307E0AB
:100280000900F550EE6EE707F8E2E807F9D7EBC092
:10029000F6FFECC0F7FFEDC0F8FF0001E907000E24
:0602A000EA5BBFD712006B
:0A02A600D9CFE6FFDACFE6FFE1CF83
:1002B000D9FFE2CFDAFFE652E652D650DF6E010EEA
:1002C000D7CFDBFFDECF10F0DDCF11F010C0F3FF92
:1002D00011C0F4FFE552E552E552E5CFDAFFE7CF72
:0402E000D9FF120030
:0C02E400D9CFE6FFDACFE6FFE1CFD9FF6B
:1002F000E2CFDAFFE652E652FC0EDBCFDEFFDBCFC9
:10030000DDFF010EDB50D76EDF50D66EE552E552B1
:0C031000E552E5CFDAFFE7CFD9FF12007D
:04031C00D9CFE6FF50
:10032000DACFE6FFE1CFD9FFE2CFDAFFFD0EDB50F7
:100330007F0BD56ED76AD66AF294FD0EDBAE02D083
:10034000F28A01D0F29AD58EE552E5CFDAFFE7CFF7
:04035000D9FF1200BF
:0C035400036A026A100EE76ED8900636AD
:100360000736023603360B50025C0C50035805E387
:100370000B50025E0C50035A062AE72EF0D71200EB
:10038000000EF36E00EE00F0060E01D81200EA60D7
:1003900002D0EE6AFCD7F350E9601200EE6AFCD797
:1003A00015EE00F025EE00F0F86A0F9C04EC01F069
:0C03B000DEEC01F00AEC00F0FBD71200BC
:0203BC0012002D
:0203BE007F8737
:1003C0008F979FA6AEB5C3CAD0D6DCE1E6EAEEF2BF
:1003D000F5F8FAFCFDFEFEFDFCFAF8F5F2EEEAE6B1
:1003E000E1DCD6D0CAC3BC13AE109F978F877F774E
:1003F0006F675F585049423B342E28221D18141055
:100400000C090604020100000001020406090C1098
:1004100014181D22282E343B424950585F676F77CD
:020420000000DA
:020000040030CA
:0100010002FC
:010003001EDE
:010005008377
:010006008178
:00000001FF
